:0406000018EF03F0FC
:08060800FF0E816EFC0E826EF4
:10061000BE0E836E700E846ECA0E856EFF0E866EE1
:10062000FD0E876EFC0E886E8388838665EF03F06F
:10063000778E779CF86AF29A0E01550E0D01EF6FD6
:10064000AA0EEF6FEF91270E0E01086F370E0A6F9B
:10065000320E116F210E136F110E156F230E176FCF
:10066000130E196F140E1A6F120E626F100E726F46
:10067000140E746F0E0E836F550E0D01EF6FAA0EE0
:10068000EF6FEF810E01486B456B476B496B200E96
:10069000436F046AE2878A0EDE6F000EDF6FA60EDC
:1006A000E16F900EE06F056A066A000E0F01586F49
:1006B0000E01926F9A6FA76FAF6FB46FBC6FD26B62
:0E06C000D36BD16BD06B00019FD7FFD7FFD754
:020000040030CA
:0C000000AAFF3FCF9FFFFFDFFFFFFFFFC5
:00000001FF
;PIC18F67K40
;CRC=444D  CREATED="21-Ene.-26 12:20"
