:04060000A5EF03F06F
:080608004449503D257525759C
:1006100025752575207C204C45443D25752575257F
:100620007525750D0A00FF0E816EFC0E826EBE0EE2
:10063000836E700E846ECA0E856EFF0E866EFD0E82
:10064000876EFC0E886E83888386F2EF03F00900C4
:10065000F6CF15F0F7CF16F0F8CF17F0F5500E01E2
:1006600037A9FED7DD6F15C0F6FF16C0F7FF17C01C
:10067000F8FF142E01D002D00001E9D700011200CA
:100680001750016A165C03E216C000F00CD0006A35
:10069000080E186E163600361750005CD8B0006E83
:1006A0000136182EF7D71200015014C016F0640E50
:1006B000176EE6DF00C014F00150300E07E115A2FE
:1006C0000FD015B60DD015B8200E03D0159615987D
:1006D0001580012601500E0137A9FED7DD6F0001FC
:1006E00014C016F00A0E176ECBDF00C014F00150D4
:1006F000300E06E115B60BD015A009D015B8200EA6
:10070000012601500E0137A9FED7DD6F0001300E22
:10071000142614500E0137A9FED7DD6F0001120018
:10072000EA6A0C0EE96EEF500EE0140E016E006ADC
:10073000002EFED7012EFBD7BF0E006E002EFED777
:1007400000D0EF2EF2D781EF04F0778E779CF86A15
:10075000F29A0E01550E0D01EF6FAA0EEF6FEF9199
:10076000270E0E01086F370E0A6F320E116F210E21
:10077000136F110E156F230E176F130E196F140ED2
:100780001A6F120E626F100E726F140E746F0E0ECF
:10079000836F550E0D01EF6FAA0EEF6FEF810E0103
:1007A000486B456B476B496B200E436F046AE287C9
:1007B0008A0EDE6F000EDF6FA60EE16F900EE06F07
:1007C000056A066A000E0F01586F0E01926F9A6F4C
:1007D000A76FAF6FB46FBC6FD26BD36BD16BD06BA5
:1007E000000121D786800B908EB00B8086820B9201
:1007F0008EB20B8286840B948EB40B8486860B9605
:100800008EB60B860BB002D07A9001D07A8082909F
:100810000BB202D07A9201D07A8282920BB402D0CB
:100820007D9A01D07D8A859A0BB602D07D9801D041
:100830007D888598000E0BB0010E0C6E000E0BB279
:10084000010E0D6E000E0BB4010E0E6E000E0BB6F7
:10085000010E0F6E000E0BB0010E106E000E0BB2EB
:10086000010E116E000E0BB4010E126E000E0BB6CF
:10087000010E136E080EF66E060EF76E000EF86E81
:10088000040E146EE4DE0CC014F01B0E156E0CDFAB
:100890000DC014F01B0E156E07DF0EC014F01B0EFA
:1008A000156E02DF0FC014F01B0E156EFDDE140E68
:1008B000F66E060EF76E000EF86E070E146EC7DEAB
:1008C00010C014F01B0E156EEFDE11C014F01B0EDD
:1008D000156EEADE12C014F01B0E156EE5DE13C0B5
:1008E00014F01B0E156EE0DE0D0E0E0137A9FED7BB
:1008F000DD6F0A0E37A9FED7DD6FC80E0C6E000142
:060900000FD770D70300C1
:020000040030CA
:0C000000AAFFFDFF9FFFFFDFFFFFFFFFD7
:00000001FF
;PIC18F67K40
;CRC=30FF  CREATED="21-Ene.-26 16:23"
